:100000000C942A000C9447000C9447000C94470071
:100010000C9447000C9447000C9447000C94470044
:100020000C9447000C9447000C9432040C94470045
:100030000C9447000C9447000C9447000C94470024
:100040000C9447000C9447000C9447000C94470014
:100050000C94470011241FBECFE5D8E0DEBFCDBF12
:1000600010E0A0E6B0E0E6EBF8E002C005900D92EB
:10007000AE39B107D9F720E0AEE9B0E001C01D927A
:10008000A03AB207E1F70E94B0030C9459040C9413
:100090000000823419F118F4813439F00895833462
:1000A000B1F1843409F44CC00895413059F42AB3B5
:1000B00081E090E002C0880F991F6A95E2F7822BD9
:1000C0008ABB08952AB381E090E002C0880F991F8F
:1000D0006A95E2F7809582238ABB0895413059F4EE
:1000E00027B381E090E002C0880F991F6A95E2F77C
:1000F000822B87BB089527B381E090E002C0880F70
:10010000991F6A95E2F78095822387BB0895413055
:1001100059F424B381E090E002C0880F991F6A95DA
:10012000E2F7822B84BB089524B381E090E002C003
:10013000880F991F6A95E2F78095822384BB089502
:10014000413059F421B381E090E002C0880F991F3B
:100150006A95E2F7822B81BB089521B381E090E09C
:1001600002C0880F991F6A95E2F78095822381BBB0
:100170000895823419F118F4813439F008958334E4
:10018000B1F1843409F44CC00895413059F42BB3D3
:1001900081E090E002C0880F991F6A95E2F7822BF8
:1001A0008BBB08952BB381E090E002C0880F991FAC
:1001B0006A95E2F7809582238BBB0895413059F40C
:1001C00028B381E090E002C0880F991F6A95E2F79A
:1001D000822B88BB089528B381E090E002C0880F8D
:1001E000991F6A95E2F78095822388BB0895413074
:1001F00059F425B381E090E002C0880F991F6A95F9
:10020000E2F7822B85BB089525B381E090E002C020
:10021000880F991F6A95E2F78095822385BB089520
:10022000413059F422B381E090E002C0880F991F59
:100230006A95E2F7822B82BB089522B381E090E0B9
:1002400002C0880F991F6A95E2F78095822382BBCE
:1002500008958234E9F018F4813431F055C08334C4
:1002600059F18434E9F150C049B381E090E09C0138
:10027000062E02C0220F331F0A94E2F7842F90E06B
:100280008223932302C0959587956A95E2F7089596
:1002900046B381E090E09C01062E02C0220F331F7E
:1002A0000A94E2F7842F90E08223932302C095956D
:1002B00087956A95E2F7089543B381E090E09C0149
:1002C000062E02C0220F331F0A94E2F7842F90E01B
:1002D0008223932302C0959587956A95E2F7089546
:1002E00040B381E090E09C01062E02C0220F331F34
:1002F0000A94E2F7842F90E08223932302C095951D
:1003000087956A95E2F7089580E00895823419F19F
:1003100018F4813439F008958334B1F1843409F448
:100320004CC00895413059F42BB381E090E002C0F5
:10033000880F991F6A95E2F7822B8BBB08952BB328
:1003400081E090E002C0880F991F6A95E2F78095DE
:1003500082238BBB0895413059F428B381E090E0AB
:1003600002C0880F991F6A95E2F7822B88BB089517
:1003700028B381E090E002C0880F991F6A95E2F7E8
:100380008095822388BB0895413059F425B381E0DC
:1003900090E002C0880F991F6A95E2F7822B85BB17
:1003A000089525B381E090E002C0880F991F6A95F7
:1003B000E2F78095822385BB0895413059F422B33A
:1003C00081E090E002C0880F991F6A95E2F7822BC6
:1003D00082BB089522B381E090E002C0880F991F8C
:1003E0006A95E2F78095822382BB08956295607FCB
:1003F000823479F018F4813431F00895833479F03F
:10040000843499F008958BB38F708BBB8BB3862B9C
:100410008BBB88B38F7088BB88B3862B88BB85B3B2
:100420008F7085BB85B3862B85BB82B38F7082BBF3
:1004300082B3682B62BB089541E060E081E40E94D2
:10044000490041E061E081E40E94490041E062E04E
:1004500081E40E94490041E063E081E40E94490098
:1004600040E064E081E40E94490040E065E081E40E
:100470000E94490040E066E081E40E94490040E0BB
:1004800067E081E40E94490041E064E081E40E9469
:10049000860141E065E081E40E94860141E066E07A
:1004A00081E40E94860141E067E081E40E948601C8
:1004B0000895EF92FF920F931F93CF93DF93CDB7E1
:1004C000DEB760970FB6F894DEBF0FBECDBF80E1F8
:1004D000E1E6F0E0DE01119601900D928A95E1F7D8
:1004E000EE24EA94F12C39C041E060E081E40E94FE
:1004F000B90041E061E081E40E94B90041E062E0BE
:1005000081E40E94B90041E063E081E40E94B90007
:1005100040E06F2D81E40E94B90010E019C064E052
:10052000610F81E40E942901082F811110C0EF2D75
:10053000F0E0EE0FFF1FEE0FFF1F81E090E08C0F49
:100540009D1FE80FF91FE10FF11DE08003C01F5F41
:10055000143028F3002321F0F39493E09F1520F644
:100560008E2D60960FB6F894DEBF0FBECDBFDF9123
:10057000CF911F910F91FF90EF90089541E062E0BD
:1005800082E40E94B9008FE99FE00197F1F700C073
:10059000000040E062E082E40E94B9008FE99FE041
:1005A0000197F1F700C000000895CF93C82F682F7E
:1005B00062956F7082E40E94F60140E060E082E4A0
:1005C0000E94B9000E94BE026C2F82E40E94F601D4
:1005D00040E060E082E40E94B9000E94BE028FEC1D
:1005E00097E00197F1F700C00000CF9108952FEF39
:1005F00081EE94E0215080409040E1F700C000007F
:1006000041E064E082E40E94490041E065E082E468
:100610000E94490041E066E082E40E94490041E016
:1006200067E082E40E94490041E062E082E40E94C7
:10063000490041E061E082E40E94490041E060E05D
:1006400082E40E94490040E061E082E40E94B90037
:1006500082E00E94D5028FE19EE40197F1F700C08D
:10066000000088E20E94D5028FEC97E00197F1F735
:1006700000C000008EE00E94D5028FEC97E0019749
:10068000F1F700C0000081E00E94D5028FE19EE4F6
:100690000197F1F700C0000086E00E94D5028FECC0
:1006A00097E00197F1F700C000000895CF93C82F9D
:1006B000682F62956F7082E40E94F60141E060E06D
:1006C00082E40E94B9000E94BE026C2F82E40E9464
:1006D000F60141E060E082E40E94B9000E94BE029F
:1006E0008FEC97E00197F1F700C00000CF910895DB
:1006F000CF93DF93EC0103C00E94560321968881BB
:100700008111FACFDF91CF91089581E00E94D50247
:100710008FE19EE40197F1F700C0000008959FEF7C
:10072000980F923070F4613170F4662371F081306B
:1007300019F42FE7260F0AC0823041F42FEB260F61
:1007400005C020E803C020E801C020E8822F0E94F5
:10075000D5028FEC97E00197F1F700C000000895F3
:100760000E94F7020E941C020E94490481E790E067
:100770000E94780380919E0090919F00883E934054
:10078000A4F00E94850361E082E00E948F0387E766
:1007900090E00E9478038FEF99E628E18150904025
:1007A0002040E1F700C0000006C00E94590280937B
:1007B00060008F3FF9F28FEF92E527E08150904083
:1007C0002040E1F700C0000080916000853329F5EA
:1007D0000E94850381E890E00E9478038091600088
:1007E0000E9456038FEF94E32CE08150904020400C
:1007F000E1F700C0000061E082E00E948F0383E81F
:1008000090E00E9478038FEF93ED20E381509040B9
:100810002040E1F700C00000ADCF853309F4AACF36
:1008200080919E0090919F00883E93400CF0A2CF53
:100830000E94850361E082E00E948F0380E990E0DE
:100840000E9478038FEF99E628E181509040204084
:10085000E1F700C000000E94850381E790E00E945C
:10086000780388CF1F920F920FB60F9211248F93A7
:100870009F9380919E0090919F00019690939F007E
:1008800080939E009F918F910F900FBE0F901F90AD
:10089000189583B7886083BF80E58CBF83B781607C
:1008A00083BF83B7846083BF789489B7826089BF30
:0608B0000895F894FFCF4B
:1008B600FF3738392F3435362A3132332D41303D22
:1008C6002B332B3F3D380074696D65206F7665725A
:1008D600003D00526967687420616E737765720027
:0E08E60077726F6E6720616E73776572000027
:00000001FF
